{
  "_format": "hh-sol-artifact-1",
  "contractName": "MediaVault",
  "sourceName": "contracts/MediaVaultNFT.sol",
  "abi": [
    {
      "inputs": [],
      "stateMutability": "nonpayable",
      "type": "constructor"
    },
    {
      "inputs": [
        {
          "internalType": "address",
          "name": "sender",
          "type": "address"
        },
        {
          "internalType": "uint256",
          "name": "tokenId",
          "type": "uint256"
        },
        {
          "internalType": "address",
          "name": "owner",
          "type": "address"
        }
      ],
      "name": "ERC721IncorrectOwner",
      "type": "error"
    },
    {
      "inputs": [
        {
          "internalType": "address",
          "name": "operator",
          "type": "address"
        },
        {
          "internalType": "uint256",
          "name": "tokenId",
          "type": "uint256"
        }
      ],
      "name": "ERC721InsufficientApproval",
      "type": "error"
    },
    {
      "inputs": [
        {
          "internalType": "address",
          "name": "approver",
          "type": "address"
        }
      ],
      "name": "ERC721InvalidApprover",
      "type": "error"
    },
    {
      "inputs": [
        {
          "internalType": "address",
          "name": "operator",
          "type": "address"
        }
      ],
      "name": "ERC721InvalidOperator",
      "type": "error"
    },
    {
      "inputs": [
        {
          "internalType": "address",
          "name": "owner",
          "type": "address"
        }
      ],
      "name": "ERC721InvalidOwner",
      "type": "error"
    },
    {
      "inputs": [
        {
          "internalType": "address",
          "name": "receiver",
          "type": "address"
        }
      ],
      "name": "ERC721InvalidReceiver",
      "type": "error"
    },
    {
      "inputs": [
        {
          "internalType": "address",
          "name": "sender",
          "type": "address"
        }
      ],
      "name": "ERC721InvalidSender",
      "type": "error"
    },
    {
      "inputs": [
        {
          "internalType": "uint256",
          "name": "tokenId",
          "type": "uint256"
        }
      ],
      "name": "ERC721NonexistentToken",
      "type": "error"
    },
    {
      "anonymous": false,
      "inputs": [
        {
          "indexed": true,
          "internalType": "address",
          "name": "owner",
          "type": "address"
        },
        {
          "indexed": true,
          "internalType": "address",
          "name": "approved",
          "type": "address"
        },
        {
          "indexed": true,
          "internalType": "uint256",
          "name": "tokenId",
          "type": "uint256"
        }
      ],
      "name": "Approval",
      "type": "event"
    },
    {
      "anonymous": false,
      "inputs": [
        {
          "indexed": true,
          "internalType": "address",
          "name": "owner",
          "type": "address"
        },
        {
          "indexed": true,
          "internalType": "address",
          "name": "operator",
          "type": "address"
        },
        {
          "indexed": false,
          "internalType": "bool",
          "name": "approved",
          "type": "bool"
        }
      ],
      "name": "ApprovalForAll",
      "type": "event"
    },
    {
      "anonymous": false,
      "inputs": [
        {
          "indexed": false,
          "internalType": "uint256",
          "name": "_fromTokenId",
          "type": "uint256"
        },
        {
          "indexed": false,
          "internalType": "uint256",
          "name": "_toTokenId",
          "type": "uint256"
        }
      ],
      "name": "BatchMetadataUpdate",
      "type": "event"
    },
    {
      "anonymous": false,
      "inputs": [
        {
          "indexed": false,
          "internalType": "uint256",
          "name": "_tokenId",
          "type": "uint256"
        }
      ],
      "name": "MetadataUpdate",
      "type": "event"
    },
    {
      "anonymous": false,
      "inputs": [
        {
          "indexed": true,
          "internalType": "address",
          "name": "from",
          "type": "address"
        },
        {
          "indexed": true,
          "internalType": "address",
          "name": "to",
          "type": "address"
        },
        {
          "indexed": true,
          "internalType": "uint256",
          "name": "tokenId",
          "type": "uint256"
        }
      ],
      "name": "Transfer",
      "type": "event"
    },
    {
      "inputs": [
        {
          "internalType": "address",
          "name": "to",
          "type": "address"
        },
        {
          "internalType": "uint256",
          "name": "tokenId",
          "type": "uint256"
        }
      ],
      "name": "approve",
      "outputs": [],
      "stateMutability": "nonpayable",
      "type": "function"
    },
    {
      "inputs": [
        {
          "internalType": "address",
          "name": "owner",
          "type": "address"
        }
      ],
      "name": "balanceOf",
      "outputs": [
        {
          "internalType": "uint256",
          "name": "",
          "type": "uint256"
        }
      ],
      "stateMutability": "view",
      "type": "function"
    },
    {
      "inputs": [
        {
          "internalType": "uint256",
          "name": "tokenId",
          "type": "uint256"
        }
      ],
      "name": "burn",
      "outputs": [],
      "stateMutability": "nonpayable",
      "type": "function"
    },
    {
      "inputs": [
        {
          "internalType": "uint256",
          "name": "tokenId",
          "type": "uint256"
        }
      ],
      "name": "getApproved",
      "outputs": [
        {
          "internalType": "address",
          "name": "",
          "type": "address"
        }
      ],
      "stateMutability": "view",
      "type": "function"
    },
    {
      "inputs": [
        {
          "internalType": "address",
          "name": "owner",
          "type": "address"
        },
        {
          "internalType": "address",
          "name": "operator",
          "type": "address"
        }
      ],
      "name": "isApprovedForAll",
      "outputs": [
        {
          "internalType": "bool",
          "name": "",
          "type": "bool"
        }
      ],
      "stateMutability": "view",
      "type": "function"
    },
    {
      "inputs": [],
      "name": "name",
      "outputs": [
        {
          "internalType": "string",
          "name": "",
          "type": "string"
        }
      ],
      "stateMutability": "view",
      "type": "function"
    },
    {
      "inputs": [
        {
          "internalType": "uint256",
          "name": "tokenId",
          "type": "uint256"
        }
      ],
      "name": "ownerOf",
      "outputs": [
        {
          "internalType": "address",
          "name": "",
          "type": "address"
        }
      ],
      "stateMutability": "view",
      "type": "function"
    },
    {
      "inputs": [
        {
          "internalType": "address",
          "name": "to",
          "type": "address"
        },
        {
          "internalType": "string",
          "name": "uri",
          "type": "string"
        }
      ],
      "name": "safeMint",
      "outputs": [
        {
          "internalType": "uint256",
          "name": "",
          "type": "uint256"
        }
      ],
      "stateMutability": "nonpayable",
      "type": "function"
    },
    {
      "inputs": [
        {
          "internalType": "address",
          "name": "from",
          "type": "address"
        },
        {
          "internalType": "address",
          "name": "to",
          "type": "address"
        },
        {
          "internalType": "uint256",
          "name": "tokenId",
          "type": "uint256"
        }
      ],
      "name": "safeTransferFrom",
      "outputs": [],
      "stateMutability": "nonpayable",
      "type": "function"
    },
    {
      "inputs": [
        {
          "internalType": "address",
          "name": "from",
          "type": "address"
        },
        {
          "internalType": "address",
          "name": "to",
          "type": "address"
        },
        {
          "internalType": "uint256",
          "name": "tokenId",
          "type": "uint256"
        },
        {
          "internalType": "bytes",
          "name": "data",
          "type": "bytes"
        }
      ],
      "name": "safeTransferFrom",
      "outputs": [],
      "stateMutability": "nonpayable",
      "type": "function"
    },
    {
      "inputs": [
        {
          "internalType": "address",
          "name": "operator",
          "type": "address"
        },
        {
          "internalType": "bool",
          "name": "approved",
          "type": "bool"
        }
      ],
      "name": "setApprovalForAll",
      "outputs": [],
      "stateMutability": "nonpayable",
      "type": "function"
    },
    {
      "inputs": [
        {
          "internalType": "bytes4",
          "name": "interfaceId",
          "type": "bytes4"
        }
      ],
      "name": "supportsInterface",
      "outputs": [
        {
          "internalType": "bool",
          "name": "",
          "type": "bool"
        }
      ],
      "stateMutability": "view",
      "type": "function"
    },
    {
      "inputs": [],
      "name": "symbol",
      "outputs": [
        {
          "internalType": "string",
          "name": "",
          "type": "string"
        }
      ],
      "stateMutability": "view",
      "type": "function"
    },
    {
      "inputs": [
        {
          "internalType": "uint256",
          "name": "tokenId",
          "type": "uint256"
        }
      ],
      "name": "tokenURI",
      "outputs": [
        {
          "internalType": "string",
          "name": "",
          "type": "string"
        }
      ],
      "stateMutability": "view",
      "type": "function"
    },
    {
      "inputs": [
        {
          "internalType": "address",
          "name": "from",
          "type": "address"
        },
        {
          "internalType": "address",
          "name": "to",
          "type": "address"
        },
        {
          "internalType": "uint256",
          "name": "tokenId",
          "type": "uint256"
        }
      ],
      "name": "transferFrom",
      "outputs": [],
      "stateMutability": "nonpayable",
      "type": "function"
    }
  ],
  "bytecode": "0x608060405234801561001057600080fd5b506040518060400160405280600a81526020017f4d656469615661756c74000000000000000000000000000000000000000000008152506040518060400160405280600281526020017f4d56000000000000000000000000000000000000000000000000000000000000815250816000908161008c91906102f4565b50806001908161009c91906102f4565b5050506103c6565b600081519050919050565b7f4e487b7100000000000000000000000000000000000000000000000000000000600052604160045260246000fd5b7f4e487b7100000000000000000000000000000000000000000000000000000000600052602260045260246000fd5b6000600282049050600182168061012557607f821691505b602082108103610138576101376100de565b5b50919050565b60008190508160005260206000209050919050565b60006020601f8301049050919050565b600082821b905092915050565b6000600883026101a07fffffffffffffffffffffffffffffffffffffffffffffffffffffffffffffffff82610163565b6101aa8683610163565b95508019841693508086168417925050509392505050565b6000819050919050565b6000819050919050565b60006101f16101ec6101e7846101c2565b6101cc565b6101c2565b9050919050565b6000819050919050565b61020b836101d6565b61021f610217826101f8565b848454610170565b825550505050565b600090565b610234610227565b61023f818484610202565b505050565b5b818110156102635761025860008261022c565b600181019050610245565b5050565b601f8211156102a8576102798161013e565b61028284610153565b81016020851015610291578190505b6102a561029d85610153565b830182610244565b50505b505050565b600082821c905092915050565b60006102cb600019846008026102ad565b1980831691505092915050565b60006102e483836102ba565b9150826002028217905092915050565b6102fd826100a4565b67ffffffffffffffff811115610316576103156100af565b5b610320825461010d565b61032b828285610267565b600060209050601f83116001811461035e576000841561034c578287015190505b61035685826102d8565b8655506103be565b601f19841661036c8661013e565b60005b828110156103945784890151825560018201915060208501945060208101905061036f565b868310156103b157848901516103ad601f8916826102ba565b8355505b6001600288020188555050505b505050505050565b612462806103d56000396000f3fe608060405234801561001057600080fd5b50600436106100f55760003560e01c80636352211e11610097578063b88d4fde11610066578063b88d4fde14610282578063c87b56dd1461029e578063d204c45e146102ce578063e985e9c5146102fe576100f5565b80636352211e146101e857806370a082311461021857806395d89b4114610248578063a22cb46514610266576100f5565b8063095ea7b3116100d3578063095ea7b31461017857806323b872dd1461019457806342842e0e146101b057806342966c68146101cc576100f5565b806301ffc9a7146100fa57806306fdde031461012a578063081812fc14610148575b600080fd5b610114600480360381019061010f91906118ba565b61032e565b6040516101219190611902565b60405180910390f35b610132610340565b60405161013f91906119ad565b60405180910390f35b610162600480360381019061015d9190611a05565b6103d2565b60405161016f9190611a73565b60405180910390f35b610192600480360381019061018d9190611aba565b6103ee565b005b6101ae60048036038101906101a99190611afa565b610404565b005b6101ca60048036038101906101c59190611afa565b610506565b005b6101e660048036038101906101e19190611a05565b610526565b005b61020260048036038101906101fd9190611a05565b61053d565b60405161020f9190611a73565b60405180910390f35b610232600480360381019061022d9190611b4d565b61054f565b60405161023f9190611b89565b60405180910390f35b610250610609565b60405161025d91906119ad565b60405180910390f35b610280600480360381019061027b9190611bd0565b61069b565b005b61029c60048036038101906102979190611d45565b6106b1565b005b6102b860048036038101906102b39190611a05565b6106d6565b6040516102c591906119ad565b60405180910390f35b6102e860048036038101906102e39190611e69565b6106e8565b6040516102f59190611b89565b60405180910390f35b61031860048036038101906103139190611ec5565b610722565b6040516103259190611902565b60405180910390f35b6000610339826107b6565b9050919050565b60606000805461034f90611f34565b80601f016020809104026020016040519081016040528092919081815260200182805461037b90611f34565b80156103c85780601f1061039d576101008083540402835291602001916103c8565b820191906000526020600020905b8154815290600101906020018083116103ab57829003601f168201915b5050505050905090565b60006103dd82610817565b506103e78261089f565b9050919050565b61040082826103fb6108dc565b6108e4565b5050565b600073ffffffffffffffffffffffffffffffffffffffff168273ffffffffffffffffffffffffffffffffffffffff16036104765760006040517f64a0ae9200000000000000000000000000000000000000000000000000000000815260040161046d9190611a73565b60405180910390fd5b600061048a83836104856108dc565b6108f6565b90508373ffffffffffffffffffffffffffffffffffffffff168173ffffffffffffffffffffffffffffffffffffffff1614610500578382826040517f64283d7b0000000000000000000000000000000000000000000000000000000081526004016104f793929190611f65565b60405180910390fd5b50505050565b610521838383604051806020016040528060008152506106b1565b505050565b6105396000826105346108dc565b6108f6565b5050565b600061054882610817565b9050919050565b60008073ffffffffffffffffffffffffffffffffffffffff168273ffffffffffffffffffffffffffffffffffffffff16036105c25760006040517f89c62b640000000000000000000000000000000000000000000000000000000081526004016105b99190611a73565b60405180910390fd5b600360008373ffffffffffffffffffffffffffffffffffffffff1673ffffffffffffffffffffffffffffffffffffffff168152602001908152602001600020549050919050565b60606001805461061890611f34565b80601f016020809104026020016040519081016040528092919081815260200182805461064490611f34565b80156106915780601f1061066657610100808354040283529160200191610691565b820191906000526020600020905b81548152906001019060200180831161067457829003601f168201915b5050505050905090565b6106ad6106a66108dc565b8383610b10565b5050565b6106bc848484610404565b6106d06106c76108dc565b85858585610c7f565b50505050565b60606106e182610e30565b9050919050565b600080600760008154809291906106fe90611fcb565b91905055905061070e8482610f43565b6107188184610f61565b8091505092915050565b6000600560008473ffffffffffffffffffffffffffffffffffffffff1673ffffffffffffffffffffffffffffffffffffffff16815260200190815260200160002060008373ffffffffffffffffffffffffffffffffffffffff1673ffffffffffffffffffffffffffffffffffffffff16815260200190815260200160002060009054906101000a900460ff16905092915050565b6000634906490660e01b7bffffffffffffffffffffffffffffffffffffffffffffffffffffffff1916827bffffffffffffffffffffffffffffffffffffffffffffffffffffffff19161480610810575061080f82610fbd565b5b9050919050565b6000806108238361109f565b9050600073ffffffffffffffffffffffffffffffffffffffff168173ffffffffffffffffffffffffffffffffffffffff160361089657826040517f7e27328900000000000000000000000000000000000000000000000000000000815260040161088d9190611b89565b60405180910390fd5b80915050919050565b60006004600083815260200190815260200160002060009054906101000a900473ffffffffffffffffffffffffffffffffffffffff169050919050565b600033905090565b6108f183838360016110dc565b505050565b6000806109028461109f565b9050600073ffffffffffffffffffffffffffffffffffffffff168373ffffffffffffffffffffffffffffffffffffffff1614610944576109438184866112a1565b5b600073ffffffffffffffffffffffffffffffffffffffff168173ffffffffffffffffffffffffffffffffffffffff16146109d5576109866000856000806110dc565b6001600360008373ffffffffffffffffffffffffffffffffffffffff1673ffffffffffffffffffffffffffffffffffffffff168152602001908152602001600020600082825403925050819055505b600073ffffffffffffffffffffffffffffffffffffffff168573ffffffffffffffffffffffffffffffffffffffff1614610a58576001600360008773ffffffffffffffffffffffffffffffffffffffff1673ffffffffffffffffffffffffffffffffffffffff168152602001908152602001600020600082825401925050819055505b846002600086815260200190815260200160002060006101000a81548173ffffffffffffffffffffffffffffffffffffffff021916908373ffffffffffffffffffffffffffffffffffffffff160217905550838573ffffffffffffffffffffffffffffffffffffffff168273ffffffffffffffffffffffffffffffffffffffff167fddf252ad1be2c89b69c2b068fc378daa952ba7f163c4a11628f55a4df523b3ef60405160405180910390a4809150509392505050565b600073ffffffffffffffffffffffffffffffffffffffff168273ffffffffffffffffffffffffffffffffffffffff1603610b8157816040517f5b08ba18000000000000000000000000000000000000000000000000000000008152600401610b789190611a73565b60405180910390fd5b80600560008573ffffffffffffffffffffffffffffffffffffffff1673ffffffffffffffffffffffffffffffffffffffff16815260200190815260200160002060008473ffffffffffffffffffffffffffffffffffffffff1673ffffffffffffffffffffffffffffffffffffffff16815260200190815260200160002060006101000a81548160ff0219169083151502179055508173ffffffffffffffffffffffffffffffffffffffff168373ffffffffffffffffffffffffffffffffffffffff167f17307eab39ab6107e8899845ad3d59bd9653f200f220920489ca2b5937696c3183604051610c729190611902565b60405180910390a3505050565b60008373ffffffffffffffffffffffffffffffffffffffff163b1115610e29578273ffffffffffffffffffffffffffffffffffffffff1663150b7a02868685856040518563ffffffff1660e01b8152600401610cde9493929190612068565b6020604051808303816000875af1925050508015610d1a57506040513d601f19601f82011682018060405250810190610d1791906120c9565b60015b610d9e573d8060008114610d4a576040519150601f19603f3d011682016040523d82523d6000602084013e610d4f565b606091505b506000815103610d9657836040517f64a0ae92000000000000000000000000000000000000000000000000000000008152600401610d8d9190611a73565b60405180910390fd5b805160208201fd5b63150b7a0260e01b7bffffffffffffffffffffffffffffffffffffffffffffffffffffffff1916817bffffffffffffffffffffffffffffffffffffffffffffffffffffffff191614610e2757836040517f64a0ae92000000000000000000000000000000000000000000000000000000008152600401610e1e9190611a73565b60405180910390fd5b505b5050505050565b6060610e3b82610817565b506000600660008481526020019081526020016000208054610e5c90611f34565b80601f0160208091040260200160405190810160405280929190818152602001828054610e8890611f34565b8015610ed55780601f10610eaa57610100808354040283529160200191610ed5565b820191906000526020600020905b815481529060010190602001808311610eb857829003601f168201915b505050505090506000610ee6611365565b90506000815103610efb578192505050610f3e565b600082511115610f30578082604051602001610f18929190612132565b60405160208183030381529060405292505050610f3e565b610f398461137c565b925050505b919050565b610f5d8282604051806020016040528060008152506113e5565b5050565b80600660008481526020019081526020016000209081610f819190612302565b507ff8e1a15aba9398e019f0b49df1a4fde98ee17ae345cb5f6b5e2c27f5033e8ce782604051610fb19190611b89565b60405180910390a15050565b60007f80ac58cd000000000000000000000000000000000000000000000000000000007bffffffffffffffffffffffffffffffffffffffffffffffffffffffff1916827bffffffffffffffffffffffffffffffffffffffffffffffffffffffff1916148061108857507f5b5e139f000000000000000000000000000000000000000000000000000000007bffffffffffffffffffffffffffffffffffffffffffffffffffffffff1916827bffffffffffffffffffffffffffffffffffffffffffffffffffffffff1916145b80611098575061109782611409565b5b9050919050565b60006002600083815260200190815260200160002060009054906101000a900473ffffffffffffffffffffffffffffffffffffffff169050919050565b80806111155750600073ffffffffffffffffffffffffffffffffffffffff168273ffffffffffffffffffffffffffffffffffffffff1614155b1561124957600061112584610817565b9050600073ffffffffffffffffffffffffffffffffffffffff168373ffffffffffffffffffffffffffffffffffffffff161415801561119057508273ffffffffffffffffffffffffffffffffffffffff168173ffffffffffffffffffffffffffffffffffffffff1614155b80156111a357506111a18184610722565b155b156111e557826040517fa9fbf51f0000000000000000000000000000000000000000000000000000000081526004016111dc9190611a73565b60405180910390fd5b811561124757838573ffffffffffffffffffffffffffffffffffffffff168273ffffffffffffffffffffffffffffffffffffffff167f8c5be1e5ebec7d5bd14f71427d1e84f3dd0314c0f7b2291e5b200ac8c7c3b92560405160405180910390a45b505b836004600085815260200190815260200160002060006101000a81548173ffffffffffffffffffffffffffffffffffffffff021916908373ffffffffffffffffffffffffffffffffffffffff16021790555050505050565b6112ac838383611473565b61136057600073ffffffffffffffffffffffffffffffffffffffff168373ffffffffffffffffffffffffffffffffffffffff160361132157806040517f7e2732890000000000000000000000000000000000000000000000000000000081526004016113189190611b89565b60405180910390fd5b81816040517f177e802f0000000000000000000000000000000000000000000000000000000081526004016113579291906123d4565b60405180910390fd5b505050565b606060405180602001604052806000815250905090565b606061138782610817565b506000611392611365565b905060008151116113b257604051806020016040528060008152506113dd565b806113bc84611534565b6040516020016113cd929190612132565b6040516020818303038152906040525b915050919050565b6113ef8383611602565b6114046113fa6108dc565b6000858585610c7f565b505050565b60007f01ffc9a7000000000000000000000000000000000000000000000000000000007bffffffffffffffffffffffffffffffffffffffffffffffffffffffff1916827bffffffffffffffffffffffffffffffffffffffffffffffffffffffff1916149050919050565b60008073ffffffffffffffffffffffffffffffffffffffff168373ffffffffffffffffffffffffffffffffffffffff161415801561152b57508273ffffffffffffffffffffffffffffffffffffffff168473ffffffffffffffffffffffffffffffffffffffff1614806114ec57506114eb8484610722565b5b8061152a57508273ffffffffffffffffffffffffffffffffffffffff166115128361089f565b73ffffffffffffffffffffffffffffffffffffffff16145b5b90509392505050565b606060006001611543846116fb565b01905060008167ffffffffffffffff81111561156257611561611c1a565b5b6040519080825280601f01601f1916602001820160405280156115945781602001600182028036833780820191505090505b509050600082602083010190505b6001156115f7578080600190039150507f3031323334353637383961626364656600000000000000000000000000000000600a86061a8153600a85816115eb576115ea6123fd565b5b049450600085036115a2575b819350505050919050565b600073ffffffffffffffffffffffffffffffffffffffff168273ffffffffffffffffffffffffffffffffffffffff16036116745760006040517f64a0ae9200000000000000000000000000000000000000000000000000000000815260040161166b9190611a73565b60405180910390fd5b6000611682838360006108f6565b9050600073ffffffffffffffffffffffffffffffffffffffff168173ffffffffffffffffffffffffffffffffffffffff16146116f65760006040517f73c6ac6e0000000000000000000000000000000000000000000000000000000081526004016116ed9190611a73565b60405180910390fd5b505050565b600080600090507a184f03e93ff9f4daa797ed6e38ed64bf6a1f0100000000000000008310611759577a184f03e93ff9f4daa797ed6e38ed64bf6a1f010000000000000000838161174f5761174e6123fd565b5b0492506040810190505b6d04ee2d6d415b85acef81000000008310611796576d04ee2d6d415b85acef8100000000838161178c5761178b6123fd565b5b0492506020810190505b662386f26fc1000083106117c557662386f26fc1000083816117bb576117ba6123fd565b5b0492506010810190505b6305f5e10083106117ee576305f5e10083816117e4576117e36123fd565b5b0492506008810190505b6127108310611813576127108381611809576118086123fd565b5b0492506004810190505b60648310611836576064838161182c5761182b6123fd565b5b0492506002810190505b600a8310611845576001810190505b80915050919050565b6000604051905090565b600080fd5b600080fd5b60007fffffffff0000000000000000000000000000000000000000000000000000000082169050919050565b61189781611862565b81146118a257600080fd5b50565b6000813590506118b48161188e565b92915050565b6000602082840312156118d0576118cf611858565b5b60006118de848285016118a5565b91505092915050565b60008115159050919050565b6118fc816118e7565b82525050565b600060208201905061191760008301846118f3565b92915050565b600081519050919050565b600082825260208201905092915050565b60005b8381101561195757808201518184015260208101905061193c565b60008484015250505050565b6000601f19601f8301169050919050565b600061197f8261191d565b6119898185611928565b9350611999818560208601611939565b6119a281611963565b840191505092915050565b600060208201905081810360008301526119c78184611974565b905092915050565b6000819050919050565b6119e2816119cf565b81146119ed57600080fd5b50565b6000813590506119ff816119d9565b92915050565b600060208284031215611a1b57611a1a611858565b5b6000611a29848285016119f0565b91505092915050565b600073ffffffffffffffffffffffffffffffffffffffff82169050919050565b6000611a5d82611a32565b9050919050565b611a6d81611a52565b82525050565b6000602082019050611a886000830184611a64565b92915050565b611a9781611a52565b8114611aa257600080fd5b50565b600081359050611ab481611a8e565b92915050565b60008060408385031215611ad157611ad0611858565b5b6000611adf85828601611aa5565b9250506020611af0858286016119f0565b9150509250929050565b600080600060608486031215611b1357611b12611858565b5b6000611b2186828701611aa5565b9350506020611b3286828701611aa5565b9250506040611b43868287016119f0565b9150509250925092565b600060208284031215611b6357611b62611858565b5b6000611b7184828501611aa5565b91505092915050565b611b83816119cf565b82525050565b6000602082019050611b9e6000830184611b7a565b92915050565b611bad816118e7565b8114611bb857600080fd5b50565b600081359050611bca81611ba4565b92915050565b60008060408385031215611be757611be6611858565b5b6000611bf585828601611aa5565b9250506020611c0685828601611bbb565b9150509250929050565b600080fd5b600080fd5b7f4e487b7100000000000000000000000000000000000000000000000000000000600052604160045260246000fd5b611c5282611963565b810181811067ffffffffffffffff82111715611c7157611c70611c1a565b5b80604052505050565b6000611c8461184e565b9050611c908282611c49565b919050565b600067ffffffffffffffff821115611cb057611caf611c1a565b5b611cb982611963565b9050602081019050919050565b82818337600083830152505050565b6000611ce8611ce384611c95565b611c7a565b905082815260208101848484011115611d0457611d03611c15565b5b611d0f848285611cc6565b509392505050565b600082601f830112611d2c57611d2b611c10565b5b8135611d3c848260208601611cd5565b91505092915050565b60008060008060808587031215611d5f57611d5e611858565b5b6000611d6d87828801611aa5565b9450506020611d7e87828801611aa5565b9350506040611d8f878288016119f0565b925050606085013567ffffffffffffffff811115611db057611daf61185d565b5b611dbc87828801611d17565b91505092959194509250565b600067ffffffffffffffff821115611de357611de2611c1a565b5b611dec82611963565b9050602081019050919050565b6000611e0c611e0784611dc8565b611c7a565b905082815260208101848484011115611e2857611e27611c15565b5b611e33848285611cc6565b509392505050565b600082601f830112611e5057611e4f611c10565b5b8135611e60848260208601611df9565b91505092915050565b60008060408385031215611e8057611e7f611858565b5b6000611e8e85828601611aa5565b925050602083013567ffffffffffffffff811115611eaf57611eae61185d565b5b611ebb85828601611e3b565b9150509250929050565b60008060408385031215611edc57611edb611858565b5b6000611eea85828601611aa5565b9250506020611efb85828601611aa5565b9150509250929050565b7f4e487b7100000000000000000000000000000000000000000000000000000000600052602260045260246000fd5b60006002820490506001821680611f4c57607f821691505b602082108103611f5f57611f5e611f05565b5b50919050565b6000606082019050611f7a6000830186611a64565b611f876020830185611b7a565b611f946040830184611a64565b949350505050565b7f4e487b7100000000000000000000000000000000000000000000000000000000600052601160045260246000fd5b6000611fd6826119cf565b91507fffffffffffffffffffffffffffffffffffffffffffffffffffffffffffffffff820361200857612007611f9c565b5b600182019050919050565b600081519050919050565b600082825260208201905092915050565b600061203a82612013565b612044818561201e565b9350612054818560208601611939565b61205d81611963565b840191505092915050565b600060808201905061207d6000830187611a64565b61208a6020830186611a64565b6120976040830185611b7a565b81810360608301526120a9818461202f565b905095945050505050565b6000815190506120c38161188e565b92915050565b6000602082840312156120df576120de611858565b5b60006120ed848285016120b4565b91505092915050565b600081905092915050565b600061210c8261191d565b61211681856120f6565b9350612126818560208601611939565b80840191505092915050565b600061213e8285612101565b915061214a8284612101565b91508190509392505050565b60008190508160005260206000209050919050565b60006020601f8301049050919050565b600082821b905092915050565b6000600883026121b87fffffffffffffffffffffffffffffffffffffffffffffffffffffffffffffffff8261217b565b6121c2868361217b565b95508019841693508086168417925050509392505050565b6000819050919050565b60006121ff6121fa6121f5846119cf565b6121da565b6119cf565b9050919050565b6000819050919050565b612219836121e4565b61222d61222582612206565b848454612188565b825550505050565b600090565b612242612235565b61224d818484612210565b505050565b5b818110156122715761226660008261223a565b600181019050612253565b5050565b601f8211156122b65761228781612156565b6122908461216b565b8101602085101561229f578190505b6122b36122ab8561216b565b830182612252565b50505b505050565b600082821c905092915050565b60006122d9600019846008026122bb565b1980831691505092915050565b60006122f283836122c8565b9150826002028217905092915050565b61230b8261191d565b67ffffffffffffffff81111561232457612323611c1a565b5b61232e8254611f34565b612339828285612275565b600060209050601f83116001811461236c576000841561235a578287015190505b61236485826122e6565b8655506123cc565b601f19841661237a86612156565b60005b828110156123a25784890151825560018201915060208501945060208101905061237d565b868310156123bf57848901516123bb601f8916826122c8565b8355505b6001600288020188555050505b505050505050565b60006040820190506123e96000830185611a64565b6123f66020830184611b7a565b9392505050565b7f4e487b7100000000000000000000000000000000000000000000000000000000600052601260045260246000fdfea264697066735822122092da09e3321059b36cc0b72178db477792f546cd348ec294cc3181016d28518164736f6c634300081c0033",
  "linkReferences": {},
  "deployedLinkReferences": {}
}